{"contracts/Milestone_Mapper.sol":{"Milestone_Mapper":{"abi":[{"inputs":[],"stateMutability":"nonpayable","type":"constructor"},{"anonymous":false,"inputs":[{"indexed":false,"internalType":"uint256","name":"taskId","type":"uint256"},{"indexed":false,"internalType":"string","name":"name","type":"string"}],"name":"taskCreate","type":"event"},{"anonymous":false,"inputs":[{"indexed":false,"internalType":"uint256","name":"taskId","type":"uint256"}],"name":"taskDelete","type":"event"},{"anonymous":false,"inputs":[{"indexed":false,"internalType":"uint256","name":"taskId","type":"uint256"},{"indexed":false,"internalType":"string","name":"name","type":"string"}],"name":"taskUpdate","type":"event"},{"inputs":[],"name":"allTask","outputs":[{"components":[{"internalType":"uint256","name":"id","type":"uint256"},{"internalType":"string","name":"name","type":"string"},{"internalType":"string","name":"description","type":"string"},{"internalType":"string","name":"date","type":"string"},{"internalType":"string","name":"isPriority","type":"string"}],"internalType":"struct Milestone_Mapper.Task[]","name":"","type":"tuple[]"}],"stateMutability":"view","type":"function"},{"inputs":[{"internalType":"string","name":"_taskName","type":"string"},{"internalType":"string","name":"_description","type":"string"},{"internalType":"string","name":"_date","type":"string"},{"internalType":"string","name":"_isPriority","type":"string"}],"name":"createTask","outputs":[],"stateMutability":"payable","type":"function"},{"inputs":[{"internalType":"uint256","name":"_taskId","type":"uint256"}],"name":"deleteTask","outputs":[],"stateMutability":"payable","type":"function"},{"inputs":[{"internalType":"uint256","name":"_taskId","type":"uint256"},{"internalType":"string","name":"_taskName","type":"string"},{"internalType":"string","name":"_description","type":"string"},{"internalType":"string","name":"_date","type":"string"},{"internalType":"string","name":"_isPriority","type":"string"}],"name":"updateTask","outputs":[],"stateMutability":"payable","type":"function"},{"inputs":[{"internalType":"uint256","name":"_taskId","type":"uint256"}],"name":"viewTask","outputs":[{"components":[{"internalType":"uint256","name":"id","type":"uint256"},{"internalType":"string","name":"name","type":"string"},{"internalType":"string","name":"description","type":"string"},{"internalType":"string","name":"date","type":"string"},{"internalType":"string","name":"isPriority","type":"string"}],"internalType":"struct Milestone_Mapper.Task","name":"","type":"tuple"}],"stateMutability":"view","type":"function"}],"evm":{"bytecode":{"linkReferences":{},"object":"6080604052600160075534801561001557600080fd5b50336000806101000a81548173ffffffffffffffffffffffffffffffffffffffff021916908373ffffffffffffffffffffffffffffffffffffffff1602179055506117b8806100656000396000f3fe60806040526004361061004a5760003560e01c80633b3d7e561461004f578063527235271461008c578063560f3192146100a857806372a9f819146100c4578063997c21a5146100e0575b600080fd5b34801561005b57600080fd5b5061007660048036038101906100719190610d20565b61010b565b6040516100839190610e77565b60405180910390f35b6100a660048036038101906100a19190610efe565b6103dd565b005b6100c260048036038101906100bd9190610d20565b610627565b005b6100de60048036038101906100d99190610ffa565b610712565b005b3480156100ec57600080fd5b506100f5610924565b6040516101029190611230565b60405180910390f35b610113610c54565b8160008114158015610126575060075481105b610165576040517f08c379a000000000000000000000000000000000000000000000000000000000815260040161015c906112af565b60405180910390fd5b600660008481526020019081526020016000206040518060a00160405290816000820154815260200160018201805461019d906112fe565b80601f01602080910402602001604051908101604052809291908181526020018280546101c9906112fe565b80156102165780601f106101eb57610100808354040283529160200191610216565b820191906000526020600020905b8154815290600101906020018083116101f957829003601f168201915b5050505050815260200160028201805461022f906112fe565b80601f016020809104026020016040519081016040528092919081815260200182805461025b906112fe565b80156102a85780601f1061027d576101008083540402835291602001916102a8565b820191906000526020600020905b81548152906001019060200180831161028b57829003601f168201915b505050505081526020016003820180546102c1906112fe565b80601f01602080910402602001604051908101604052809291908181526020018280546102ed906112fe565b801561033a5780601f1061030f5761010080835404028352916020019161033a565b820191906000526020600020905b81548152906001019060200180831161031d57829003601f168201915b50505050508152602001600482018054610353906112fe565b80601f016020809104026020016040519081016040528092919081815260200182805461037f906112fe565b80156103cc5780601f106103a1576101008083540402835291602001916103cc565b820191906000526020600020905b8154815290600101906020018083116103af57829003601f168201915b505050505081525050915050919050565b88600081141580156103f0575060075481105b61042f576040517f08c379a0000000000000000000000000000000000000000000000000000000008152600401610426906112af565b60405180910390fd5b6040518060a001604052808b81526020018a8a8080601f016020809104026020016040519081016040528093929190818152602001838380828437600081840152601f19601f82011690508083019250505050505050815260200188888080601f016020809104026020016040519081016040528093929190818152602001838380828437600081840152601f19601f82011690508083019250505050505050815260200186868080601f016020809104026020016040519081016040528093929190818152602001838380828437600081840152601f19601f82011690508083019250505050505050815260200184848080601f016020809104026020016040519081016040528093929190818152602001838380828437600081840152601f19601f82011690508083019250505050505050815250600660008c8152602001908152602001600020600082015181600001556020820151816001019081610598919061150a565b5060408201518160020190816105ae919061150a565b5060608201518160030190816105c4919061150a565b5060808201518160040190816105da919061150a565b509050507f943adabf122c6ab07969fd6d8650cb507d5cbb254d4d8f7fa5abd989ea2b54d06007548a8a60405161061393929190611627565b60405180910390a150505050505050505050565b806000811415801561063a575060075481105b610679576040517f08c379a0000000000000000000000000000000000000000000000000000000008152600401610670906112af565b60405180910390fd5b600660008381526020019081526020016000206000808201600090556001820160006106a59190610c83565b6002820160006106b59190610c83565b6003820160006106c59190610c83565b6004820160006106d59190610c83565b50507feae6ad3b4b47002b66d830fda22aeca77d9ebc4b21656b0c80880f26ffbfdf34826040516107069190611659565b60405180910390a15050565b6040518060a00160405280600754815260200189898080601f016020809104026020016040519081016040528093929190818152602001838380828437600081840152601f19601f82011690508083019250505050505050815260200187878080601f016020809104026020016040519081016040528093929190818152602001838380828437600081840152601f19601f82011690508083019250505050505050815260200185858080601f016020809104026020016040519081016040528093929190818152602001838380828437600081840152601f19601f82011690508083019250505050505050815260200183838080601f016020809104026020016040519081016040528093929190818152602001838380828437600081840152601f19601f8201169050808301925050505050505081525060066000600754815260200190815260200160002060008201518160000155602082015181600101908161087f919061150a565b506040820151816002019081610895919061150a565b5060608201518160030190816108ab919061150a565b5060808201518160040190816108c1919061150a565b50905050600760008154809291906108d8906116a3565b91905055507f8d2940774d17f73b208e757bc4b4290cf4d29d6a7eb353d4b72e5eb87e73844d600754898960405161091293929190611627565b60405180910390a15050505050505050565b60606000600160075461093791906116eb565b67ffffffffffffffff8111156109505761094f61132f565b5b60405190808252806020026020018201604052801561098957816020015b610976610c54565b81526020019060019003908161096e5790505b50905060005b600160075461099e91906116eb565b811015610c4c57600660006001836109b6919061171f565b81526020019081526020016000206040518060a0016040529081600082015481526020016001820180546109e9906112fe565b80601f0160208091040260200160405190810160405280929190818152602001828054610a15906112fe565b8015610a625780601f10610a3757610100808354040283529160200191610a62565b820191906000526020600020905b815481529060010190602001808311610a4557829003601f168201915b50505050508152602001600282018054610a7b906112fe565b80601f0160208091040260200160405190810160405280929190818152602001828054610aa7906112fe565b8015610af45780601f10610ac957610100808354040283529160200191610af4565b820191906000526020600020905b815481529060010190602001808311610ad757829003601f168201915b50505050508152602001600382018054610b0d906112fe565b80601f0160208091040260200160405190810160405280929190818152602001828054610b39906112fe565b8015610b865780601f10610b5b57610100808354040283529160200191610b86565b820191906000526020600020905b815481529060010190602001808311610b6957829003601f168201915b50505050508152602001600482018054610b9f906112fe565b80601f0160208091040260200160405190810160405280929190818152602001828054610bcb906112fe565b8015610c185780601f10610bed57610100808354040283529160200191610c18565b820191906000526020600020905b815481529060010190602001808311610bfb57829003601f168201915b505050505081525050828281518110610c3457610c33611753565b5b6020026020010181905250808060010191505061098f565b508091505090565b6040518060a0016040528060008152602001606081526020016060815260200160608152602001606081525090565b508054610c8f906112fe565b6000825580601f10610ca15750610cc0565b601f016020900490600052602060002090810190610cbf9190610cc3565b5b50565b5b80821115610cdc576000816000905550600101610cc4565b5090565b600080fd5b600080fd5b6000819050919050565b610cfd81610cea565b8114610d0857600080fd5b50565b600081359050610d1a81610cf4565b92915050565b600060208284031215610d3657610d35610ce0565b5b6000610d4484828501610d0b565b91505092915050565b610d5681610cea565b82525050565b600081519050919050565b600082825260208201905092915050565b60005b83811015610d96578082015181840152602081019050610d7b565b60008484015250505050565b6000601f19601f8301169050919050565b6000610dbe82610d5c565b610dc88185610d67565b9350610dd8818560208601610d78565b610de181610da2565b840191505092915050565b600060a083016000830151610e046000860182610d4d565b5060208301518482036020860152610e1c8282610db3565b91505060408301518482036040860152610e368282610db3565b91505060608301518482036060860152610e508282610db3565b91505060808301518482036080860152610e6a8282610db3565b9150508091505092915050565b60006020820190508181036000830152610e918184610dec565b905092915050565b600080fd5b600080fd5b600080fd5b60008083601f840112610ebe57610ebd610e99565b5b8235905067ffffffffffffffff811115610edb57610eda610e9e565b5b602083019150836001820283011115610ef757610ef6610ea3565b5b9250929050565b600080600080600080600080600060a08a8c031215610f2057610f1f610ce0565b5b6000610f2e8c828d01610d0b565b99505060208a013567ffffffffffffffff811115610f4f57610f4e610ce5565b5b610f5b8c828d01610ea8565b985098505060408a013567ffffffffffffffff811115610f7e57610f7d610ce5565b5b610f8a8c828d01610ea8565b965096505060608a013567ffffffffffffffff811115610fad57610fac610ce5565b5b610fb98c828d01610ea8565b945094505060808a013567ffffffffffffffff811115610fdc57610fdb610ce5565b5b610fe88c828d01610ea8565b92509250509295985092959850929598565b6000806000806000806000806080898b03121561101a57611019610ce0565b5b600089013567ffffffffffffffff81111561103857611037610ce5565b5b6110448b828c01610ea8565b9850985050602089013567ffffffffffffffff81111561106757611066610ce5565b5b6110738b828c01610ea8565b9650965050604089013567ffffffffffffffff81111561109657611095610ce5565b5b6110a28b828c01610ea8565b9450945050606089013567ffffffffffffffff8111156110c5576110c4610ce5565b5b6110d18b828c01610ea8565b92509250509295985092959890939650565b600081519050919050565b600082825260208201905092915050565b6000819050602082019050919050565b600060a0830160008301516111276000860182610d4d565b506020830151848203602086015261113f8282610db3565b915050604083015184820360408601526111598282610db3565b915050606083015184820360608601526111738282610db3565b9150506080830151848203608086015261118d8282610db3565b9150508091505092915050565b60006111a6838361110f565b905092915050565b6000602082019050919050565b60006111c6826110e3565b6111d081856110ee565b9350836020820285016111e2856110ff565b8060005b8581101561121e57848403895281516111ff858261119a565b945061120a836111ae565b925060208a019950506001810190506111e6565b50829750879550505050505092915050565b6000602082019050818103600083015261124a81846111bb565b905092915050565b600082825260208201905092915050565b7f496e76616c696420496400000000000000000000000000000000000000000000600082015250565b6000611299600a83611252565b91506112a482611263565b602082019050919050565b600060208201905081810360008301526112c88161128c565b9050919050565b7f4e487b7100000000000000000000000000000000000000000000000000000000600052602260045260246000fd5b6000600282049050600182168061131657607f821691505b602082108103611329576113286112cf565b5b50919050565b7f4e487b7100000000000000000000000000000000000000000000000000000000600052604160045260246000fd5b60008190508160005260206000209050919050565b60006020601f8301049050919050565b600082821b905092915050565b6000600883026113c07fffffffffffffffffffffffffffffffffffffffffffffffffffffffffffffffff82611383565b6113ca8683611383565b95508019841693508086168417925050509392505050565b6000819050919050565b60006114076114026113fd84610cea565b6113e2565b610cea565b9050919050565b6000819050919050565b611421836113ec565b61143561142d8261140e565b848454611390565b825550505050565b600090565b61144a61143d565b611455818484611418565b505050565b5b818110156114795761146e600082611442565b60018101905061145b565b5050565b601f8211156114be5761148f8161135e565b61149884611373565b810160208510156114a7578190505b6114bb6114b385611373565b83018261145a565b50505b505050565b600082821c905092915050565b60006114e1600019846008026114c3565b1980831691505092915050565b60006114fa83836114d0565b9150826002028217905092915050565b61151382610d5c565b67ffffffffffffffff81111561152c5761152b61132f565b5b61153682546112fe565b61154182828561147d565b600060209050601f8311600181146115745760008415611562578287015190505b61156c85826114ee565b8655506115d4565b601f1984166115828661135e565b60005b828110156115aa57848901518255600182019150602085019450602081019050611585565b868310156115c757848901516115c3601f8916826114d0565b8355505b6001600288020188555050505b505050505050565b6115e581610cea565b82525050565b82818337600083830152505050565b60006116068385611252565b93506116138385846115eb565b61161c83610da2565b840190509392505050565b600060408201905061163c60008301866115dc565b818103602083015261164f8184866115fa565b9050949350505050565b600060208201905061166e60008301846115dc565b92915050565b7f4e487b7100000000000000000000000000000000000000000000000000000000600052601160045260246000fd5b60006116ae82610cea565b91507fffffffffffffffffffffffffffffffffffffffffffffffffffffffffffffffff82036116e0576116df611674565b5b600182019050919050565b60006116f682610cea565b915061170183610cea565b925082820390508181111561171957611718611674565b5b92915050565b600061172a82610cea565b915061173583610cea565b925082820190508082111561174d5761174c611674565b5b92915050565b7f4e487b7100000000000000000000000000000000000000000000000000000000600052603260045260246000fdfea26469706673582212208b3ac85e8bbea5f28836de85474eee789b7760f9c96ac483abb43658413b0abb64736f6c63430008180033","opcodes":"PUSH1 0x80 PUSH1 0x40 MSTORE PUSH1 0x1 PUSH1 0x7 SSTORE CALLVALUE DUP1 ISZERO PUSH2 0x15 JUMPI PUSH1 0x0 DUP1 REVERT JUMPDEST POP CALLER PUSH1 0x0 DUP1 PUSH2 0x100 EXP DUP2 SLOAD DUP2 PUSH20 0xFFFFFFFFFFFFFFFFFFFFFFFFFFFFFFFFFFFFFFFF MUL NOT AND SWAP1 DUP4 PUSH20 0xFFFFFFFFFFFFFFFFFFFFFFFFFFFFFFFFFFFFFFFF AND MUL OR SWAP1 SSTORE POP PUSH2 0x17B8 DUP1 PUSH2 0x65 PUSH1 0x0 CODECOPY PUSH1 0x0 RETURN INVALID PUSH1 0x80 PUSH1 0x40 MSTORE PUSH1 0x4 CALLDATASIZE LT PUSH2 0x4A JUMPI PUSH1 0x0 CALLDATALOAD PUSH1 0xE0 SHR DUP1 PUSH4 0x3B3D7E56 EQ PUSH2 0x4F JUMPI DUP1 PUSH4 0x52723527 EQ PUSH2 0x8C JUMPI DUP1 PUSH4 0x560F3192 EQ PUSH2 0xA8 JUMPI DUP1 PUSH4 0x72A9F819 EQ PUSH2 0xC4 JUMPI DUP1 PUSH4 0x997C21A5 EQ PUSH2 0xE0 JUMPI JUMPDEST PUSH1 0x0 DUP1 REVERT JUMPDEST CALLVALUE DUP1 ISZERO PUSH2 0x5B JUMPI PUSH1 0x0 DUP1 REVERT JUMPDEST POP PUSH2 0x76 PUSH1 0x4 DUP1 CALLDATASIZE SUB DUP2 ADD SWAP1 PUSH2 0x71 SWAP2 SWAP1 PUSH2 0xD20 JUMP JUMPDEST PUSH2 0x10B JUMP JUMPDEST PUSH1 0x40 MLOAD PUSH2 0x83 SWAP2 SWAP1 PUSH2 0xE77 JUMP JUMPDEST PUSH1 0x40 MLOAD DUP1 SWAP2 SUB SWAP1 RETURN JUMPDEST PUSH2 0xA6 PUSH1 0x4 DUP1 CALLDATASIZE SUB DUP2 ADD SWAP1 PUSH2 0xA1 SWAP2 SWAP1 PUSH2 0xEFE JUMP JUMPDEST PUSH2 0x3DD JUMP JUMPDEST STOP JUMPDEST PUSH2 0xC2 PUSH1 0x4 DUP1 CALLDATASIZE SUB DUP2 ADD SWAP1 PUSH2 0xBD SWAP2 SWAP1 PUSH2 0xD20 JUMP JUMPDEST PUSH2 0x627 JUMP JUMPDEST STOP JUMPDEST PUSH2 0xDE PUSH1 0x4 DUP1 CALLDATASIZE SUB DUP2 ADD SWAP1 PUSH2 0xD9 SWAP2 SWAP1 PUSH2 0xFFA JUMP JUMPDEST PUSH2 0x712 JUMP JUMPDEST STOP JUMPDEST CALLVALUE DUP1 ISZERO PUSH2 0xEC JUMPI PUSH1 0x0 DUP1 REVERT JUMPDEST POP PUSH2 0xF5 PUSH2 0x924 JUMP JUMPDEST PUSH1 0x40 MLOAD PUSH2 0x102 SWAP2 SWAP1 PUSH2 0x1230 JUMP JUMPDEST PUSH1 0x40 MLOAD DUP1 SWAP2 SUB SWAP1 RETURN JUMPDEST PUSH2 0x113 PUSH2 0xC54 JUMP JUMPDEST DUP2 PUSH1 0x0 DUP2 EQ ISZERO DUP1 ISZERO PUSH2 0x126 JUMPI POP PUSH1 0x7 SLOAD DUP2 LT JUMPDEST PUSH2 0x165 JUMPI PUSH1 0x40 MLOAD PUSH32 0x8C379A000000000000000000000000000000000000000000000000000000000 DUP2 MSTORE PUSH1 0x4 ADD PUSH2 0x15C SWAP1 PUSH2 0x12AF JUMP JUMPDEST PUSH1 0x40 MLOAD DUP1 SWAP2 SUB SWAP1 REVERT JUMPDEST PUSH1 0x6 PUSH1 0x0 DUP5 DUP2 MSTORE PUSH1 0x20 ADD SWAP1 DUP2 MSTORE PUSH1 0x20 ADD PUSH1 0x0 KECCAK256 PUSH1 0x40 MLOAD DUP1 PUSH1 0xA0 ADD PUSH1 0x40 MSTORE SWAP1 DUP2 PUSH1 0x0 DUP3 ADD SLOAD DUP2 MSTORE PUSH1 0x20 ADD PUSH1 0x1 DUP3 ADD DUP1 SLOAD PUSH2 0x19D SWAP1 PUSH2 0x12FE JUMP JUMPDEST DUP1 PUSH1 0x1F ADD PUSH1 0x20 DUP1 SWAP2 DIV MUL PUSH1 0x20 ADD PUSH1 0x40 MLOAD SWAP1 DUP2 ADD PUSH1 0x40 MSTORE DUP1 SWAP3 SWAP2 SWAP1 DUP2 DUP2 MSTORE PUSH1 0x20 ADD DUP3 DUP1 SLOAD PUSH2 0x1C9 SWAP1 PUSH2 0x12FE JUMP JUMPDEST DUP1 ISZERO PUSH2 0x216 JUMPI DUP1 PUSH1 0x1F LT PUSH2 0x1EB JUMPI PUSH2 0x100 DUP1 DUP4 SLOAD DIV MUL DUP4 MSTORE SWAP2 PUSH1 0x20 ADD SWAP2 PUSH2 0x216 JUMP JUMPDEST DUP3 ADD SWAP2 SWAP1 PUSH1 0x0 MSTORE PUSH1 0x20 PUSH1 0x0 KECCAK256 SWAP1 JUMPDEST DUP2 SLOAD DUP2 MSTORE SWAP1 PUSH1 0x1 ADD SWAP1 PUSH1 0x20 ADD DUP1 DUP4 GT PUSH2 0x1F9 JUMPI DUP3 SWAP1 SUB PUSH1 0x1F AND DUP3 ADD SWAP2 JUMPDEST POP POP POP POP POP DUP2 MSTORE PUSH1 0x20 ADD PUSH1 0x2 DUP3 ADD DUP1 SLOAD PUSH2 0x22F SWAP1 PUSH2 0x12FE JUMP JUMPDEST DUP1 PUSH1 0x1F ADD PUSH1 0x20 DUP1 SWAP2 DIV MUL PUSH1 0x20 ADD PUSH1 0x40 MLOAD SWAP1 DUP2 ADD PUSH1 0x40 MSTORE DUP1 SWAP3 SWAP2 SWAP1 DUP2 DUP2 MSTORE PUSH1 0x20 ADD DUP3 DUP1 SLOAD PUSH2 0x25B SWAP1 PUSH2 0x12FE JUMP JUMPDEST DUP1 ISZERO PUSH2 0x2A8 JUMPI DUP1 PUSH1 0x1F LT PUSH2 0x27D JUMPI PUSH2 0x100 DUP1 DUP4 SLOAD DIV MUL DUP4 MSTORE SWAP2 PUSH1 0x20 ADD SWAP2 PUSH2 0x2A8 JUMP JUMPDEST DUP3 ADD SWAP2 SWAP1 PUSH1 0x0 MSTORE PUSH1 0x20 PUSH1 0x0 KECCAK256 SWAP1 JUMPDEST DUP2 SLOAD DUP2 MSTORE SWAP1 PUSH1 0x1 ADD SWAP1 PUSH1 0x20 ADD DUP1 DUP4 GT PUSH2 0x28B JUMPI DUP3 SWAP1 SUB PUSH1 0x1F AND DUP3 ADD SWAP2 JUMPDEST POP POP POP POP POP DUP2 MSTORE PUSH1 0x20 ADD PUSH1 0x3 DUP3 ADD DUP1 SLOAD PUSH2 0x2C1 SWAP1 PUSH2 0x12FE JUMP JUMPDEST DUP1 PUSH1 0x1F ADD PUSH1 0x20 DUP1 SWAP2 DIV MUL PUSH1 0x20 ADD PUSH1 0x40 MLOAD SWAP1 DUP2 ADD PUSH1 0x40 MSTORE DUP1 SWAP3 SWAP2 SWAP1 DUP2 DUP2 MSTORE PUSH1 0x20 ADD DUP3 DUP1 SLOAD PUSH2 0x2ED SWAP1 PUSH2 0x12FE JUMP JUMPDEST DUP1 ISZERO PUSH2 0x33A JUMPI DUP1 PUSH1 0x1F LT PUSH2 0x30F JUMPI PUSH2 0x100 DUP1 DUP4 SLOAD DIV MUL DUP4 MSTORE SWAP2 PUSH1 0x20 ADD SWAP2 PUSH2 0x33A JUMP JUMPDEST DUP3 ADD SWAP2 SWAP1 PUSH1 0x0 MSTORE PUSH1 0x20 PUSH1 0x0 KECCAK256 SWAP1 JUMPDEST DUP2 SLOAD DUP2 MSTORE SWAP1 PUSH1 0x1 ADD SWAP1 PUSH1 0x20 ADD DUP1 DUP4 GT PUSH2 0x31D JUMPI DUP3 SWAP1 SUB PUSH1 0x1F AND DUP3 ADD SWAP2 JUMPDEST POP POP POP POP POP DUP2 MSTORE PUSH1 0x20 ADD PUSH1 0x4 DUP3 ADD DUP1 SLOAD PUSH2 0x353 SWAP1 PUSH2 0x12FE JUMP JUMPDEST DUP1 PUSH1 0x1F ADD PUSH1 0x20 DUP1 SWAP2 DIV MUL PUSH1 0x20 ADD PUSH1 0x40 MLOAD SWAP1 DUP2 ADD PUSH1 0x40 MSTORE DUP1 SWAP3 SWAP2 SWAP1 DUP2 DUP2 MSTORE PUSH1 0x20 ADD DUP3 DUP1 SLOAD PUSH2 0x37F SWAP1 PUSH2 0x12FE JUMP JUMPDEST DUP1 ISZERO PUSH2 0x3CC JUMPI DUP1 PUSH1 0x1F LT PUSH2 0x3A1 JUMPI PUSH2 0x100 DUP1 DUP4 SLOAD DIV MUL DUP4 MSTORE SWAP2 PUSH1 0x20 ADD SWAP2 PUSH2 0x3CC JUMP JUMPDEST DUP3 ADD SWAP2 SWAP1 PUSH1 0x0 MSTORE PUSH1 0x20 PUSH1 0x0 KECCAK256 SWAP1 JUMPDEST DUP2 SLOAD DUP2 MSTORE SWAP1 PUSH1 0x1 ADD SWAP1 PUSH1 0x20 ADD DUP1 DUP4 GT PUSH2 0x3AF JUMPI DUP3 SWAP1 SUB PUSH1 0x1F AND DUP3 ADD SWAP2 JUMPDEST POP POP POP POP POP DUP2 MSTORE POP POP SWAP2 POP POP SWAP2 SWAP1 POP JUMP JUMPDEST DUP9 PUSH1 0x0 DUP2 EQ ISZERO DUP1 ISZERO PUSH2 0x3F0 JUMPI POP PUSH1 0x7 SLOAD DUP2 LT JUMPDEST PUSH2 0x42F JUMPI PUSH1 0x40 MLOAD PUSH32 0x8C379A000000000000000000000000000000000000000000000000000000000 DUP2 MSTORE PUSH1 0x4 ADD PUSH2 0x426 SWAP1 PUSH2 0x12AF JUMP JUMPDEST PUSH1 0x40 MLOAD DUP1 SWAP2 SUB SWAP1 REVERT JUMPDEST PUSH1 0x40 MLOAD DUP1 PUSH1 0xA0 ADD PUSH1 0x40 MSTORE DUP1 DUP12 DUP2 MSTORE PUSH1 0x20 ADD DUP11 DUP11 DUP1 DUP1 PUSH1 0x1F ADD PUSH1 0x20 DUP1 SWAP2 DIV MUL PUSH1 0x20 ADD PUSH1 0x40 MLOAD SWAP1 DUP2 ADD PUSH1 0x40 MSTORE DUP1 SWAP4 SWAP3 SWAP2 SWAP1 DUP2 DUP2 MSTORE PUSH1 0x20 ADD DUP4 DUP4 DUP1 DUP3 DUP5 CALLDATACOPY PUSH1 0x0 DUP2 DUP5 ADD MSTORE PUSH1 0x1F NOT PUSH1 0x1F DUP3 ADD AND SWAP1 POP DUP1 DUP4 ADD SWAP3 POP POP POP POP POP POP POP DUP2 MSTORE PUSH1 0x20 ADD DUP9 DUP9 DUP1 DUP1 PUSH1 0x1F ADD PUSH1 0x20 DUP1 SWAP2 DIV MUL PUSH1 0x20 ADD PUSH1 0x40 MLOAD SWAP1 DUP2 ADD PUSH1 0x40 MSTORE DUP1 SWAP4 SWAP3 SWAP2 SWAP1 DUP2 DUP2 MSTORE PUSH1 0x20 ADD DUP4 DUP4 DUP1 DUP3 DUP5 CALLDATACOPY PUSH1 0x0 DUP2 DUP5 ADD MSTORE PUSH1 0x1F NOT PUSH1 0x1F DUP3 ADD AND SWAP1 POP DUP1 DUP4 ADD SWAP3 POP POP POP POP POP POP POP DUP2 MSTORE PUSH1 0x20 ADD DUP7 DUP7 DUP1 DUP1 PUSH1 0x1F ADD PUSH1 0x20 DUP1 SWAP2 DIV MUL PUSH1 0x20 ADD PUSH1 0x40 MLOAD SWAP1 DUP2 ADD PUSH1 0x40 MSTORE DUP1 SWAP4 SWAP3 SWAP2 SWAP1 DUP2 DUP2 MSTORE PUSH1 0x20 ADD DUP4 DUP4 DUP1 DUP3 DUP5 CALLDATACOPY PUSH1 0x0 DUP2 DUP5 ADD MSTORE PUSH1 0x1F NOT PUSH1 0x1F DUP3 ADD AND SWAP1 POP DUP1 DUP4 ADD SWAP3 POP POP POP POP POP POP POP DUP2 MSTORE PUSH1 0x20 ADD DUP5 DUP5 DUP1 DUP1 PUSH1 0x1F ADD PUSH1 0x20 DUP1 SWAP2 DIV MUL PUSH1 0x20 ADD PUSH1 0x40 MLOAD SWAP1 DUP2 ADD PUSH1 0x40 MSTORE DUP1 SWAP4 SWAP3 SWAP2 SWAP1 DUP2 DUP2 MSTORE PUSH1 0x20 ADD DUP4 DUP4 DUP1 DUP3 DUP5 CALLDATACOPY PUSH1 0x0 DUP2 DUP5 ADD MSTORE PUSH1 0x1F NOT PUSH1 0x1F DUP3 ADD AND SWAP1 POP DUP1 DUP4 ADD SWAP3 POP POP POP POP POP POP POP DUP2 MSTORE POP PUSH1 0x6 PUSH1 0x0 DUP13 DUP2 MSTORE PUSH1 0x20 ADD SWAP1 DUP2 MSTORE PUSH1 0x20 ADD PUSH1 0x0 KECCAK256 PUSH1 0x0 DUP3 ADD MLOAD DUP2 PUSH1 0x0 ADD SSTORE PUSH1 0x20 DUP3 ADD MLOAD DUP2 PUSH1 0x1 ADD SWAP1 DUP2 PUSH2 0x598 SWAP2 SWAP1 PUSH2 0x150A JUMP JUMPDEST POP PUSH1 0x40 DUP3 ADD MLOAD DUP2 PUSH1 0x2 ADD SWAP1 DUP2 PUSH2 0x5AE SWAP2 SWAP1 PUSH2 0x150A JUMP JUMPDEST POP PUSH1 0x60 DUP3 ADD MLOAD DUP2 PUSH1 0x3 ADD SWAP1 DUP2 PUSH2 0x5C4 SWAP2 SWAP1 PUSH2 0x150A JUMP JUMPDEST POP PUSH1 0x80 DUP3 ADD MLOAD DUP2 PUSH1 0x4 ADD SWAP1 DUP2 PUSH2 0x5DA SWAP2 SWAP1 PUSH2 0x150A JUMP JUMPDEST POP SWAP1 POP POP PUSH32 0x943ADABF122C6AB07969FD6D8650CB507D5CBB254D4D8F7FA5ABD989EA2B54D0 PUSH1 0x7 SLOAD DUP11 DUP11 PUSH1 0x40 MLOAD PUSH2 0x613 SWAP4 SWAP3 SWAP2 SWAP1 PUSH2 0x1627 JUMP JUMPDEST PUSH1 0x40 MLOAD DUP1 SWAP2 SUB SWAP1 LOG1 POP POP POP POP POP POP POP POP POP POP JUMP JUMPDEST DUP1 PUSH1 0x0 DUP2 EQ ISZERO DUP1 ISZERO PUSH2 0x63A JUMPI POP PUSH1 0x7 SLOAD DUP2 LT JUMPDEST PUSH2 0x679 JUMPI PUSH1 0x40 MLOAD PUSH32 0x8C379A000000000000000000000000000000000000000000000000000000000 DUP2 MSTORE PUSH1 0x4 ADD PUSH2 0x670 SWAP1 PUSH2 0x12AF JUMP JUMPDEST PUSH1 0x40 MLOAD DUP1 SWAP2 SUB SWAP1 REVERT JUMPDEST PUSH1 0x6 PUSH1 0x0 DUP4 DUP2 MSTORE PUSH1 0x20 ADD SWAP1 DUP2 MSTORE PUSH1 0x20 ADD PUSH1 0x0 KECCAK256 PUSH1 0x0 DUP1 DUP3 ADD PUSH1 0x0 SWAP1 SSTORE PUSH1 0x1 DUP3 ADD PUSH1 0x0 PUSH2 0x6A5 SWAP2 SWAP1 PUSH2 0xC83 JUMP JUMPDEST PUSH1 0x2 DUP3 ADD PUSH1 0x0 PUSH2 0x6B5 SWAP2 SWAP1 PUSH2 0xC83 JUMP JUMPDEST PUSH1 0x3 DUP3 ADD PUSH1 0x0 PUSH2 0x6C5 SWAP2 SWAP1 PUSH2 0xC83 JUMP JUMPDEST PUSH1 0x4 DUP3 ADD PUSH1 0x0 PUSH2 0x6D5 SWAP2 SWAP1 PUSH2 0xC83 JUMP JUMPDEST POP POP PUSH32 0xEAE6AD3B4B47002B66D830FDA22AECA77D9EBC4B21656B0C80880F26FFBFDF34 DUP3 PUSH1 0x40 MLOAD PUSH2 0x706 SWAP2 SWAP1 PUSH2 0x1659 JUMP JUMPDEST PUSH1 0x40 MLOAD DUP1 SWAP2 SUB SWAP1 LOG1 POP POP JUMP JUMPDEST PUSH1 0x40 MLOAD DUP1 PUSH1 0xA0 ADD PUSH1 0x40 MSTORE DUP1 PUSH1 0x7 SLOAD DUP2 MSTORE PUSH1 0x20 ADD DUP10 DUP10 DUP1 DUP1 PUSH1 0x1F ADD PUSH1 0x20 DUP1 SWAP2 DIV MUL PUSH1 0x20 ADD PUSH1 0x40 MLOAD SWAP1 DUP2 ADD PUSH1 0x40 MSTORE DUP1 SWAP4 SWAP3 SWAP2 SWAP1 DUP2 DUP2 MSTORE PUSH1 0x20 ADD DUP4 DUP4 DUP1 DUP3 DUP5 CALLDATACOPY PUSH1 0x0 DUP2 DUP5 ADD MSTORE PUSH1 0x1F NOT PUSH1 0x1F DUP3 ADD AND SWAP1 POP DUP1 DUP4 ADD SWAP3 POP POP POP POP POP POP POP DUP2 MSTORE PUSH1 0x20 ADD DUP8 DUP8 DUP1 DUP1 PUSH1 0x1F ADD PUSH1 0x20 DUP1 SWAP2 DIV MUL PUSH1 0x20 ADD PUSH1 0x40 MLOAD SWAP1 DUP2 ADD PUSH1 0x40 MSTORE DUP1 SWAP4 SWAP3 SWAP2 SWAP1 DUP2 DUP2 MSTORE PUSH1 0x20 ADD DUP4 DUP4 DUP1 DUP3 DUP5 CALLDATACOPY PUSH1 0x0 DUP2 DUP5 ADD MSTORE PUSH1 0x1F NOT PUSH1 0x1F DUP3 ADD AND SWAP1 POP DUP1 DUP4 ADD SWAP3 POP POP POP POP POP POP POP DUP2 MSTORE PUSH1 0x20 ADD DUP6 DUP6 DUP1 DUP1 PUSH1 0x1F ADD PUSH1 0x20 DUP1 SWAP2 DIV MUL PUSH1 0x20 ADD PUSH1 0x40 MLOAD SWAP1 DUP2 ADD PUSH1 0x40 MSTORE DUP1 SWAP4 SWAP3 SWAP2 SWAP1 DUP2 DUP2 MSTORE PUSH1 0x20 ADD DUP4 DUP4 DUP1 DUP3 DUP5 CALLDATACOPY PUSH1 0x0 DUP2 DUP5 ADD MSTORE PUSH1 0x1F NOT PUSH1 0x1F DUP3 ADD AND SWAP1 POP DUP1 DUP4 ADD SWAP3 POP POP POP POP POP POP POP DUP2 MSTORE PUSH1 0x20 ADD DUP4 DUP4 DUP1 DUP1 PUSH1 0x1F ADD PUSH1 0x20 DUP1 SWAP2 DIV MUL PUSH1 0x20 ADD PUSH1 0x40 MLOAD SWAP1 DUP2 ADD PUSH1 0x40 MSTORE DUP1 SWAP4 SWAP3 SWAP2 SWAP1 DUP2 DUP2 MSTORE PUSH1 0x20 ADD DUP4 DUP4 DUP1 DUP3 DUP5 CALLDATACOPY PUSH1 0x0 DUP2 DUP5 ADD MSTORE PUSH1 0x1F NOT PUSH1 0x1F DUP3 ADD AND SWAP1 POP DUP1 DUP4 ADD SWAP3 POP POP POP POP POP POP POP DUP2 MSTORE POP PUSH1 0x6 PUSH1 0x0 PUSH1 0x7 SLOAD DUP2 MSTORE PUSH1 0x20 ADD SWAP1 DUP2 MSTORE PUSH1 0x20 ADD PUSH1 0x0 KECCAK256 PUSH1 0x0 DUP3 ADD MLOAD DUP2 PUSH1 0x0 ADD SSTORE PUSH1 0x20 DUP3 ADD MLOAD DUP2 PUSH1 0x1 ADD SWAP1 DUP2 PUSH2 0x87F SWAP2 SWAP1 PUSH2 0x150A JUMP JUMPDEST POP PUSH1 0x40 DUP3 ADD MLOAD DUP2 PUSH1 0x2 ADD SWAP1 DUP2 PUSH2 0x895 SWAP2 SWAP1 PUSH2 0x150A JUMP JUMPDEST POP PUSH1 0x60 DUP3 ADD MLOAD DUP2 PUSH1 0x3 ADD SWAP1 DUP2 PUSH2 0x8AB SWAP2 SWAP1 PUSH2 0x150A JUMP JUMPDEST POP PUSH1 0x80 DUP3 ADD MLOAD DUP2 PUSH1 0x4 ADD SWAP1 DUP2 PUSH2 0x8C1 SWAP2 SWAP1 PUSH2 0x150A JUMP JUMPDEST POP SWAP1 POP POP PUSH1 0x7 PUSH1 0x0 DUP2 SLOAD DUP1 SWAP3 SWAP2 SWAP1 PUSH2 0x8D8 SWAP1 PUSH2 0x16A3 JUMP JUMPDEST SWAP2 SWAP1 POP SSTORE POP PUSH32 0x8D2940774D17F73B208E757BC4B4290CF4D29D6A7EB353D4B72E5EB87E73844D PUSH1 0x7 SLOAD DUP10 DUP10 PUSH1 0x40 MLOAD PUSH2 0x912 SWAP4 SWAP3 SWAP2 SWAP1 PUSH2 0x1627 JUMP JUMPDEST PUSH1 0x40 MLOAD DUP1 SWAP2 SUB SWAP1 LOG1 POP POP POP POP POP POP POP POP JUMP JUMPDEST PUSH1 0x60 PUSH1 0x0 PUSH1 0x1 PUSH1 0x7 SLOAD PUSH2 0x937 SWAP2 SWAP1 PUSH2 0x16EB JUMP JUMPDEST PUSH8 0xFFFFFFFFFFFFFFFF DUP2 GT ISZERO PUSH2 0x950 JUMPI PUSH2 0x94F PUSH2 0x132F JUMP JUMPDEST JUMPDEST PUSH1 0x40 MLOAD SWAP1 DUP1 DUP3 MSTORE DUP1 PUSH1 0x20 MUL PUSH1 0x20 ADD DUP3 ADD PUSH1 0x40 MSTORE DUP1 ISZERO PUSH2 0x989 JUMPI DUP2 PUSH1 0x20 ADD JUMPDEST PUSH2 0x976 PUSH2 0xC54 JUMP JUMPDEST DUP2 MSTORE PUSH1 0x20 ADD SWAP1 PUSH1 0x1 SWAP1 SUB SWAP1 DUP2 PUSH2 0x96E JUMPI SWAP1 POP JUMPDEST POP SWAP1 POP PUSH1 0x0 JUMPDEST PUSH1 0x1 PUSH1 0x7 SLOAD PUSH2 0x99E SWAP2 SWAP1 PUSH2 0x16EB JUMP JUMPDEST DUP2 LT ISZERO PUSH2 0xC4C JUMPI PUSH1 0x6 PUSH1 0x0 PUSH1 0x1 DUP4 PUSH2 0x9B6 SWAP2 SWAP1 PUSH2 0x171F JUMP JUMPDEST DUP2 MSTORE PUSH1 0x20 ADD SWAP1 DUP2 MSTORE PUSH1 0x20 ADD PUSH1 0x0 KECCAK256 PUSH1 0x40 MLOAD DUP1 PUSH1 0xA0 ADD PUSH1 0x40 MSTORE SWAP1 DUP2 PUSH1 0x0 DUP3 ADD SLOAD DUP2 MSTORE PUSH1 0x20 ADD PUSH1 0x1 DUP3 ADD DUP1 SLOAD PUSH2 0x9E9 SWAP1 PUSH2 0x12FE JUMP JUMPDEST DUP1 PUSH1 0x1F ADD PUSH1 0x20 DUP1 SWAP2 DIV MUL PUSH1 0x20 ADD PUSH1 0x40 MLOAD SWAP1 DUP2 ADD PUSH1 0x40 MSTORE DUP1 SWAP3 SWAP2 SWAP1 DUP2 DUP2 MSTORE PUSH1 0x20 ADD DUP3 DUP1 SLOAD PUSH2 0xA15 SWAP1 PUSH2 0x12FE JUMP JUMPDEST DUP1 ISZERO PUSH2 0xA62 JUMPI DUP1 PUSH1 0x1F LT PUSH2 0xA37 JUMPI PUSH2 0x100 DUP1 DUP4 SLOAD DIV MUL DUP4 MSTORE SWAP2 PUSH1 0x20 ADD SWAP2 PUSH2 0xA62 JUMP JUMPDEST DUP3 ADD SWAP2 SWAP1 PUSH1 0x0 MSTORE PUSH1 0x20 PUSH1 0x0 KECCAK256 SWAP1 JUMPDEST DUP2 SLOAD DUP2 MSTORE SWAP1 PUSH1 0x1 ADD SWAP1 PUSH1 0x20 ADD DUP1 DUP4 GT PUSH2 0xA45 JUMPI DUP3 SWAP1 SUB PUSH1 0x1F AND DUP3 ADD SWAP2 JUMPDEST POP POP POP POP POP DUP2 MSTORE PUSH1 0x20 ADD PUSH1 0x2 DUP3 ADD DUP1 SLOAD PUSH2 0xA7B SWAP1 PUSH2 0x12FE JUMP JUMPDEST DUP1 PUSH1 0x1F ADD PUSH1 0x20 DUP1 SWAP2 DIV MUL PUSH1 0x20 ADD PUSH1 0x40 MLOAD SWAP1 DUP2 ADD PUSH1 0x40 MSTORE DUP1 SWAP3 SWAP2 SWAP1 DUP2 DUP2 MSTORE PUSH1 0x20 ADD DUP3 DUP1 SLOAD PUSH2 0xAA7 SWAP1 PUSH2 0x12FE JUMP JUMPDEST DUP1 ISZERO PUSH2 0xAF4 JUMPI DUP1 PUSH1 0x1F LT PUSH2 0xAC9 JUMPI PUSH2 0x100 DUP1 DUP4 SLOAD DIV MUL DUP4 MSTORE SWAP2 PUSH1 0x20 ADD SWAP2 PUSH2 0xAF4 JUMP JUMPDEST DUP3 ADD SWAP2 SWAP1 PUSH1 0x0 MSTORE PUSH1 0x20 PUSH1 0x0 KECCAK256 SWAP1 JUMPDEST DUP2 SLOAD DUP2 MSTORE SWAP1 PUSH1 0x1 ADD SWAP1 PUSH1 0x20 ADD DUP1 DUP4 GT PUSH2 0xAD7 JUMPI DUP3 SWAP1 SUB PUSH1 0x1F AND DUP3 ADD SWAP2 JUMPDEST POP POP POP POP POP DUP2 MSTORE PUSH1 0x20 ADD PUSH1 0x3 DUP3 ADD DUP1 SLOAD PUSH2 0xB0D SWAP1 PUSH2 0x12FE JUMP JUMPDEST DUP1 PUSH1 0x1F ADD PUSH1 0x20 DUP1 SWAP2 DIV MUL PUSH1 0x20 ADD PUSH1 0x40 MLOAD SWAP1 DUP2 ADD PUSH1 0x40 MSTORE DUP1 SWAP3 SWAP2 SWAP1 DUP2 DUP2 MSTORE PUSH1 0x20 ADD DUP3 DUP1 SLOAD PUSH2 0xB39 SWAP1 PUSH2 0x12FE JUMP JUMPDEST DUP1 ISZERO PUSH2 0xB86 JUMPI DUP1 PUSH1 0x1F LT PUSH2 0xB5B JUMPI PUSH2 0x100 DUP1 DUP4 SLOAD DIV MUL DUP4 MSTORE SWAP2 PUSH1 0x20 ADD SWAP2 PUSH2 0xB86 JUMP JUMPDEST DUP3 ADD SWAP2 SWAP1 PUSH1 0x0 MSTORE PUSH1 0x20 PUSH1 0x0 KECCAK256 SWAP1 JUMPDEST DUP2 SLOAD DUP2 MSTORE SWAP1 PUSH1 0x1 ADD SWAP1 PUSH1 0x20 ADD DUP1 DUP4 GT PUSH2 0xB69 JUMPI DUP3 SWAP1 SUB PUSH1 0x1F AND DUP3 ADD SWAP2 JUMPDEST POP POP POP POP POP DUP2 MSTORE PUSH1 0x20 ADD PUSH1 0x4 DUP3 ADD DUP1 SLOAD PUSH2 0xB9F SWAP1 PUSH2 0x12FE JUMP JUMPDEST DUP1 PUSH1 0x1F ADD PUSH1 0x20 DUP1 SWAP2 DIV MUL PUSH1 0x20 ADD PUSH1 0x40 MLOAD SWAP1 DUP2 ADD PUSH1 0x40 MSTORE DUP1 SWAP3 SWAP2 SWAP1 DUP2 DUP2 MSTORE PUSH1 0x20 ADD DUP3 DUP1 SLOAD PUSH2 0xBCB SWAP1 PUSH2 0x12FE JUMP JUMPDEST DUP1 ISZERO PUSH2 0xC18 JUMPI DUP1 PUSH1 0x1F LT PUSH2 0xBED JUMPI PUSH2 0x100 DUP1 DUP4 SLOAD DIV MUL DUP4 MSTORE SWAP2 PUSH1 0x20 ADD SWAP2 PUSH2 0xC18 JUMP JUMPDEST DUP3 ADD SWAP2 SWAP1 PUSH1 0x0 MSTORE PUSH1 0x20 PUSH1 0x0 KECCAK256 SWAP1 JUMPDEST DUP2 SLOAD DUP2 MSTORE SWAP1 PUSH1 0x1 ADD SWAP1 PUSH1 0x20 ADD DUP1 DUP4 GT PUSH2 0xBFB JUMPI DUP3 SWAP1 SUB PUSH1 0x1F AND DUP3 ADD SWAP2 JUMPDEST POP POP POP POP POP DUP2 MSTORE POP POP DUP3 DUP3 DUP2 MLOAD DUP2 LT PUSH2 0xC34 JUMPI PUSH2 0xC33 PUSH2 0x1753 JUMP JUMPDEST JUMPDEST PUSH1 0x20 MUL PUSH1 0x20 ADD ADD DUP2 SWAP1 MSTORE POP DUP1 DUP1 PUSH1 0x1 ADD SWAP2 POP POP PUSH2 0x98F JUMP JUMPDEST POP DUP1 SWAP2 POP POP SWAP1 JUMP JUMPDEST PUSH1 0x40 MLOAD DUP1 PUSH1 0xA0 ADD PUSH1 0x40 MSTORE DUP1 PUSH1 0x0 DUP2 MSTORE PUSH1 0x20 ADD PUSH1 0x60 DUP2 MSTORE PUSH1 0x20 ADD PUSH1 0x60 DUP2 MSTORE PUSH1 0x20 ADD PUSH1 0x60 DUP2 MSTORE PUSH1 0x20 ADD PUSH1 0x60 DUP2 MSTORE POP SWAP1 JUMP JUMPDEST POP DUP1 SLOAD PUSH2 0xC8F SWAP1 PUSH2 0x12FE JUMP JUMPDEST PUSH1 0x0 DUP3 SSTORE DUP1 PUSH1 0x1F LT PUSH2 0xCA1 JUMPI POP PUSH2 0xCC0 JUMP JUMPDEST PUSH1 0x1F ADD PUSH1 0x20 SWAP1 DIV SWAP1 PUSH1 0x0 MSTORE PUSH1 0x20 PUSH1 0x0 KECCAK256 SWAP1 DUP2 ADD SWAP1 PUSH2 0xCBF SWAP2 SWAP1 PUSH2 0xCC3 JUMP JUMPDEST JUMPDEST POP JUMP JUMPDEST JUMPDEST DUP1 DUP3 GT ISZERO PUSH2 0xCDC JUMPI PUSH1 0x0 DUP2 PUSH1 0x0 SWAP1 SSTORE POP PUSH1 0x1 ADD PUSH2 0xCC4 JUMP JUMPDEST POP SWAP1 JUMP JUMPDEST PUSH1 0x0 DUP1 REVERT JUMPDEST PUSH1 0x0 DUP1 REVERT JUMPDEST PUSH1 0x0 DUP2 SWAP1 POP SWAP2 SWAP1 POP JUMP JUMPDEST PUSH2 0xCFD DUP2 PUSH2 0xCEA JUMP JUMPDEST DUP2 EQ PUSH2 0xD08 JUMPI PUSH1 0x0 DUP1 REVERT JUMPDEST POP JUMP JUMPDEST PUSH1 0x0 DUP2 CALLDATALOAD SWAP1 POP PUSH2 0xD1A DUP2 PUSH2 0xCF4 JUMP JUMPDEST SWAP3 SWAP2 POP POP JUMP JUMPDEST PUSH1 0x0 PUSH1 0x20 DUP3 DUP5 SUB SLT ISZERO PUSH2 0xD36 JUMPI PUSH2 0xD35 PUSH2 0xCE0 JUMP JUMPDEST JUMPDEST PUSH1 0x0 PUSH2 0xD44 DUP5 DUP3 DUP6 ADD PUSH2 0xD0B JUMP JUMPDEST SWAP2 POP POP SWAP3 SWAP2 POP POP JUMP JUMPDEST PUSH2 0xD56 DUP2 PUSH2 0xCEA JUMP JUMPDEST DUP3 MSTORE POP POP JUMP JUMPDEST PUSH1 0x0 DUP2 MLOAD SWAP1 POP SWAP2 SWAP1 POP JUMP JUMPDEST PUSH1 0x0 DUP3 DUP3 MSTORE PUSH1 0x20 DUP3 ADD SWAP1 POP SWAP3 SWAP2 POP POP JUMP JUMPDEST PUSH1 0x0 JUMPDEST DUP4 DUP2 LT ISZERO PUSH2 0xD96 JUMPI DUP1 DUP3 ADD MLOAD DUP2 DUP5 ADD MSTORE PUSH1 0x20 DUP2 ADD SWAP1 POP PUSH2 0xD7B JUMP JUMPDEST PUSH1 0x0 DUP5 DUP5 ADD MSTORE POP POP POP POP JUMP JUMPDEST PUSH1 0x0 PUSH1 0x1F NOT PUSH1 0x1F DUP4 ADD AND SWAP1 POP SWAP2 SWAP1 POP JUMP JUMPDEST PUSH1 0x0 PUSH2 0xDBE DUP3 PUSH2 0xD5C JUMP JUMPDEST PUSH2 0xDC8 DUP2 DUP6 PUSH2 0xD67 JUMP JUMPDEST SWAP4 POP PUSH2 0xDD8 DUP2 DUP6 PUSH1 0x20 DUP7 ADD PUSH2 0xD78 JUMP JUMPDEST PUSH2 0xDE1 DUP2 PUSH2 0xDA2 JUMP JUMPDEST DUP5 ADD SWAP2 POP POP SWAP3 SWAP2 POP POP JUMP JUMPDEST PUSH1 0x0 PUSH1 0xA0 DUP4 ADD PUSH1 0x0 DUP4 ADD MLOAD PUSH2 0xE04 PUSH1 0x0 DUP7 ADD DUP3 PUSH2 0xD4D JUMP JUMPDEST POP PUSH1 0x20 DUP4 ADD MLOAD DUP5 DUP3 SUB PUSH1 0x20 DUP7 ADD MSTORE PUSH2 0xE1C DUP3 DUP3 PUSH2 0xDB3 JUMP JUMPDEST SWAP2 POP POP PUSH1 0x40 DUP4 ADD MLOAD DUP5 DUP3 SUB PUSH1 0x40 DUP7 ADD MSTORE PUSH2 0xE36 DUP3 DUP3 PUSH2 0xDB3 JUMP JUMPDEST SWAP2 POP POP PUSH1 0x60 DUP4 ADD MLOAD DUP5 DUP3 SUB PUSH1 0x60 DUP7 ADD MSTORE PUSH2 0xE50 DUP3 DUP3 PUSH2 0xDB3 JUMP JUMPDEST SWAP2 POP POP PUSH1 0x80 DUP4 ADD MLOAD DUP5 DUP3 SUB PUSH1 0x80 DUP7 ADD MSTORE PUSH2 0xE6A DUP3 DUP3 PUSH2 0xDB3 JUMP JUMPDEST SWAP2 POP POP DUP1 SWAP2 POP POP SWAP3 SWAP2 POP POP JUMP JUMPDEST PUSH1 0x0 PUSH1 0x20 DUP3 ADD SWAP1 POP DUP2 DUP2 SUB PUSH1 0x0 DUP4 ADD MSTORE PUSH2 0xE91 DUP2 DUP5 PUSH2 0xDEC JUMP JUMPDEST SWAP1 POP SWAP3 SWAP2 POP POP JUMP JUMPDEST PUSH1 0x0 DUP1 REVERT JUMPDEST PUSH1 0x0 DUP1 REVERT JUMPDEST PUSH1 0x0 DUP1 REVERT JUMPDEST PUSH1 0x0 DUP1 DUP4 PUSH1 0x1F DUP5 ADD SLT PUSH2 0xEBE JUMPI PUSH2 0xEBD PUSH2 0xE99 JUMP JUMPDEST JUMPDEST DUP3 CALLDATALOAD SWAP1 POP PUSH8 0xFFFFFFFFFFFFFFFF DUP2 GT ISZERO PUSH2 0xEDB JUMPI PUSH2 0xEDA PUSH2 0xE9E JUMP JUMPDEST JUMPDEST PUSH1 0x20 DUP4 ADD SWAP2 POP DUP4 PUSH1 0x1 DUP3 MUL DUP4 ADD GT ISZERO PUSH2 0xEF7 JUMPI PUSH2 0xEF6 PUSH2 0xEA3 JUMP JUMPDEST JUMPDEST SWAP3 POP SWAP3 SWAP1 POP JUMP JUMPDEST PUSH1 0x0 DUP1 PUSH1 0x0 DUP1 PUSH1 0x0 DUP1 PUSH1 0x0 DUP1 PUSH1 0x0 PUSH1 0xA0 DUP11 DUP13 SUB SLT ISZERO PUSH2 0xF20 JUMPI PUSH2 0xF1F PUSH2 0xCE0 JUMP JUMPDEST JUMPDEST PUSH1 0x0 PUSH2 0xF2E DUP13 DUP3 DUP14 ADD PUSH2 0xD0B JUMP JUMPDEST SWAP10 POP POP PUSH1 0x20 DUP11 ADD CALLDATALOAD PUSH8 0xFFFFFFFFFFFFFFFF DUP2 GT ISZERO PUSH2 0xF4F JUMPI PUSH2 0xF4E PUSH2 0xCE5 JUMP JUMPDEST JUMPDEST PUSH2 0xF5B DUP13 DUP3 DUP14 ADD PUSH2 0xEA8 JUMP JUMPDEST SWAP9 POP SWAP9 POP POP PUSH1 0x40 DUP11 ADD CALLDATALOAD PUSH8 0xFFFFFFFFFFFFFFFF DUP2 GT ISZERO PUSH2 0xF7E JUMPI PUSH2 0xF7D PUSH2 0xCE5 JUMP JUMPDEST JUMPDEST PUSH2 0xF8A DUP13 DUP3 DUP14 ADD PUSH2 0xEA8 JUMP JUMPDEST SWAP7 POP SWAP7 POP POP PUSH1 0x60 DUP11 ADD CALLDATALOAD PUSH8 0xFFFFFFFFFFFFFFFF DUP2 GT ISZERO PUSH2 0xFAD JUMPI PUSH2 0xFAC PUSH2 0xCE5 JUMP JUMPDEST JUMPDEST PUSH2 0xFB9 DUP13 DUP3 DUP14 ADD PUSH2 0xEA8 JUMP JUMPDEST SWAP5 POP SWAP5 POP POP PUSH1 0x80 DUP11 ADD CALLDATALOAD PUSH8 0xFFFFFFFFFFFFFFFF DUP2 GT ISZERO PUSH2 0xFDC JUMPI PUSH2 0xFDB PUSH2 0xCE5 JUMP JUMPDEST JUMPDEST PUSH2 0xFE8 DUP13 DUP3 DUP14 ADD PUSH2 0xEA8 JUMP JUMPDEST SWAP3 POP SWAP3 POP POP SWAP3 SWAP6 SWAP9 POP SWAP3 SWAP6 SWAP9 POP SWAP3 SWAP6 SWAP9 JUMP JUMPDEST PUSH1 0x0 DUP1 PUSH1 0x0 DUP1 PUSH1 0x0 DUP1 PUSH1 0x0 DUP1 PUSH1 0x80 DUP10 DUP12 SUB SLT ISZERO PUSH2 0x101A JUMPI PUSH2 0x1019 PUSH2 0xCE0 JUMP JUMPDEST JUMPDEST PUSH1 0x0 DUP10 ADD CALLDATALOAD PUSH8 0xFFFFFFFFFFFFFFFF DUP2 GT ISZERO PUSH2 0x1038 JUMPI PUSH2 0x1037 PUSH2 0xCE5 JUMP JUMPDEST JUMPDEST PUSH2 0x1044 DUP12 DUP3 DUP13 ADD PUSH2 0xEA8 JUMP JUMPDEST SWAP9 POP SWAP9 POP POP PUSH1 0x20 DUP10 ADD CALLDATALOAD PUSH8 0xFFFFFFFFFFFFFFFF DUP2 GT ISZERO PUSH2 0x1067 JUMPI PUSH2 0x1066 PUSH2 0xCE5 JUMP JUMPDEST JUMPDEST PUSH2 0x1073 DUP12 DUP3 DUP13 ADD PUSH2 0xEA8 JUMP JUMPDEST SWAP7 POP SWAP7 POP POP PUSH1 0x40 DUP10 ADD CALLDATALOAD PUSH8 0xFFFFFFFFFFFFFFFF DUP2 GT ISZERO PUSH2 0x1096 JUMPI PUSH2 0x1095 PUSH2 0xCE5 JUMP JUMPDEST JUMPDEST PUSH2 0x10A2 DUP12 DUP3 DUP13 ADD PUSH2 0xEA8 JUMP JUMPDEST SWAP5 POP SWAP5 POP POP PUSH1 0x60 DUP10 ADD CALLDATALOAD PUSH8 0xFFFFFFFFFFFFFFFF DUP2 GT ISZERO PUSH2 0x10C5 JUMPI PUSH2 0x10C4 PUSH2 0xCE5 JUMP JUMPDEST JUMPDEST PUSH2 0x10D1 DUP12 DUP3 DUP13 ADD PUSH2 0xEA8 JUMP JUMPDEST SWAP3 POP SWAP3 POP POP SWAP3 SWAP6 SWAP9 POP SWAP3 SWAP6 SWAP9 SWAP1 SWAP4 SWAP7 POP JUMP JUMPDEST PUSH1 0x0 DUP2 MLOAD SWAP1 POP SWAP2 SWAP1 POP JUMP JUMPDEST PUSH1 0x0 DUP3 DUP3 MSTORE PUSH1 0x20 DUP3 ADD SWAP1 POP SWAP3 SWAP2 POP POP JUMP JUMPDEST PUSH1 0x0 DUP2 SWAP1 POP PUSH1 0x20 DUP3 ADD SWAP1 POP SWAP2 SWAP1 POP JUMP JUMPDEST PUSH1 0x0 PUSH1 0xA0 DUP4 ADD PUSH1 0x0 DUP4 ADD MLOAD PUSH2 0x1127 PUSH1 0x0 DUP7 ADD DUP3 PUSH2 0xD4D JUMP JUMPDEST POP PUSH1 0x20 DUP4 ADD MLOAD DUP5 DUP3 SUB PUSH1 0x20 DUP7 ADD MSTORE PUSH2 0x113F DUP3 DUP3 PUSH2 0xDB3 JUMP JUMPDEST SWAP2 POP POP PUSH1 0x40 DUP4 ADD MLOAD DUP5 DUP3 SUB PUSH1 0x40 DUP7 ADD MSTORE PUSH2 0x1159 DUP3 DUP3 PUSH2 0xDB3 JUMP JUMPDEST SWAP2 POP POP PUSH1 0x60 DUP4 ADD MLOAD DUP5 DUP3 SUB PUSH1 0x60 DUP7 ADD MSTORE PUSH2 0x1173 DUP3 DUP3 PUSH2 0xDB3 JUMP JUMPDEST SWAP2 POP POP PUSH1 0x80 DUP4 ADD MLOAD DUP5 DUP3 SUB PUSH1 0x80 DUP7 ADD MSTORE PUSH2 0x118D DUP3 DUP3 PUSH2 0xDB3 JUMP JUMPDEST SWAP2 POP POP DUP1 SWAP2 POP POP SWAP3 SWAP2 POP POP JUMP JUMPDEST PUSH1 0x0 PUSH2 0x11A6 DUP4 DUP4 PUSH2 0x110F JUMP JUMPDEST SWAP1 POP SWAP3 SWAP2 POP POP JUMP JUMPDEST PUSH1 0x0 PUSH1 0x20 DUP3 ADD SWAP1 POP SWAP2 SWAP1 POP JUMP JUMPDEST PUSH1 0x0 PUSH2 0x11C6 DUP3 PUSH2 0x10E3 JUMP JUMPDEST PUSH2 0x11D0 DUP2 DUP6 PUSH2 0x10EE JUMP JUMPDEST SWAP4 POP DUP4 PUSH1 0x20 DUP3 MUL DUP6 ADD PUSH2 0x11E2 DUP6 PUSH2 0x10FF JUMP JUMPDEST DUP1 PUSH1 0x0 JUMPDEST DUP6 DUP2 LT ISZERO PUSH2 0x121E JUMPI DUP5 DUP5 SUB DUP10 MSTORE DUP2 MLOAD PUSH2 0x11FF DUP6 DUP3 PUSH2 0x119A JUMP JUMPDEST SWAP5 POP PUSH2 0x120A DUP4 PUSH2 0x11AE JUMP JUMPDEST SWAP3 POP PUSH1 0x20 DUP11 ADD SWAP10 POP POP PUSH1 0x1 DUP2 ADD SWAP1 POP PUSH2 0x11E6 JUMP JUMPDEST POP DUP3 SWAP8 POP DUP8 SWAP6 POP POP POP POP POP POP SWAP3 SWAP2 POP POP JUMP JUMPDEST PUSH1 0x0 PUSH1 0x20 DUP3 ADD SWAP1 POP DUP2 DUP2 SUB PUSH1 0x0 DUP4 ADD MSTORE PUSH2 0x124A DUP2 DUP5 PUSH2 0x11BB JUMP JUMPDEST SWAP1 POP SWAP3 SWAP2 POP POP JUMP JUMPDEST PUSH1 0x0 DUP3 DUP3 MSTORE PUSH1 0x20 DUP3 ADD SWAP1 POP SWAP3 SWAP2 POP POP JUMP JUMPDEST PUSH32 0x496E76616C696420496400000000000000000000000000000000000000000000 PUSH1 0x0 DUP3 ADD MSTORE POP JUMP JUMPDEST PUSH1 0x0 PUSH2 0x1299 PUSH1 0xA DUP4 PUSH2 0x1252 JUMP JUMPDEST SWAP2 POP PUSH2 0x12A4 DUP3 PUSH2 0x1263 JUMP JUMPDEST PUSH1 0x20 DUP3 ADD SWAP1 POP SWAP2 SWAP1 POP JUMP JUMPDEST PUSH1 0x0 PUSH1 0x20 DUP3 ADD SWAP1 POP DUP2 DUP2 SUB PUSH1 0x0 DUP4 ADD MSTORE PUSH2 0x12C8 DUP2 PUSH2 0x128C JUMP JUMPDEST SWAP1 POP SWAP2 SWAP1 POP JUMP JUMPDEST PUSH32 0x4E487B7100000000000000000000000000000000000000000000000000000000 PUSH1 0x0 MSTORE PUSH1 0x22 PUSH1 0x4 MSTORE PUSH1 0x24 PUSH1 0x0 REVERT JUMPDEST PUSH1 0x0 PUSH1 0x2 DUP3 DIV SWAP1 POP PUSH1 0x1 DUP3 AND DUP1 PUSH2 0x1316 JUMPI PUSH1 0x7F DUP3 AND SWAP2 POP JUMPDEST PUSH1 0x20 DUP3 LT DUP2 SUB PUSH2 0x1329 JUMPI PUSH2 0x1328 PUSH2 0x12CF JUMP JUMPDEST JUMPDEST POP SWAP2 SWAP1 POP JUMP JUMPDEST PUSH32 0x4E487B7100000000000000000000000000000000000000000000000000000000 PUSH1 0x0 MSTORE PUSH1 0x41 PUSH1 0x4 MSTORE PUSH1 0x24 PUSH1 0x0 REVERT JUMPDEST PUSH1 0x0 DUP2 SWAP1 POP DUP2 PUSH1 0x0 MSTORE PUSH1 0x20 PUSH1 0x0 KECCAK256 SWAP1 POP SWAP2 SWAP1 POP JUMP JUMPDEST PUSH1 0x0 PUSH1 0x20 PUSH1 0x1F DUP4 ADD DIV SWAP1 POP SWAP2 SWAP1 POP JUMP JUMPDEST PUSH1 0x0 DUP3 DUP3 SHL SWAP1 POP SWAP3 SWAP2 POP POP JUMP JUMPDEST PUSH1 0x0 PUSH1 0x8 DUP4 MUL PUSH2 0x13C0 PUSH32 0xFFFFFFFFFFFFFFFFFFFFFFFFFFFFFFFFFFFFFFFFFFFFFFFFFFFFFFFFFFFFFFFF DUP3 PUSH2 0x1383 JUMP JUMPDEST PUSH2 0x13CA DUP7 DUP4 PUSH2 0x1383 JUMP JUMPDEST SWAP6 POP DUP1 NOT DUP5 AND SWAP4 POP DUP1 DUP7 AND DUP5 OR SWAP3 POP POP POP SWAP4 SWAP3 POP POP POP JUMP JUMPDEST PUSH1 0x0 DUP2 SWAP1 POP SWAP2 SWAP1 POP JUMP JUMPDEST PUSH1 0x0 PUSH2 0x1407 PUSH2 0x1402 PUSH2 0x13FD DUP5 PUSH2 0xCEA JUMP JUMPDEST PUSH2 0x13E2 JUMP JUMPDEST PUSH2 0xCEA JUMP JUMPDEST SWAP1 POP SWAP2 SWAP1 POP JUMP JUMPDEST PUSH1 0x0 DUP2 SWAP1 POP SWAP2 SWAP1 POP JUMP JUMPDEST PUSH2 0x1421 DUP4 PUSH2 0x13EC JUMP JUMPDEST PUSH2 0x1435 PUSH2 0x142D DUP3 PUSH2 0x140E JUMP JUMPDEST DUP5 DUP5 SLOAD PUSH2 0x1390 JUMP JUMPDEST DUP3 SSTORE POP POP POP POP JUMP JUMPDEST PUSH1 0x0 SWAP1 JUMP JUMPDEST PUSH2 0x144A PUSH2 0x143D JUMP JUMPDEST PUSH2 0x1455 DUP2 DUP5 DUP5 PUSH2 0x1418 JUMP JUMPDEST POP POP POP JUMP JUMPDEST JUMPDEST DUP2 DUP2 LT ISZERO PUSH2 0x1479 JUMPI PUSH2 0x146E PUSH1 0x0 DUP3 PUSH2 0x1442 JUMP JUMPDEST PUSH1 0x1 DUP2 ADD SWAP1 POP PUSH2 0x145B JUMP JUMPDEST POP POP JUMP JUMPDEST PUSH1 0x1F DUP3 GT ISZERO PUSH2 0x14BE JUMPI PUSH2 0x148F DUP2 PUSH2 0x135E JUMP JUMPDEST PUSH2 0x1498 DUP5 PUSH2 0x1373 JUMP JUMPDEST DUP2 ADD PUSH1 0x20 DUP6 LT ISZERO PUSH2 0x14A7 JUMPI DUP2 SWAP1 POP JUMPDEST PUSH2 0x14BB PUSH2 0x14B3 DUP6 PUSH2 0x1373 JUMP JUMPDEST DUP4 ADD DUP3 PUSH2 0x145A JUMP JUMPDEST POP POP JUMPDEST POP POP POP JUMP JUMPDEST PUSH1 0x0 DUP3 DUP3 SHR SWAP1 POP SWAP3 SWAP2 POP POP JUMP JUMPDEST PUSH1 0x0 PUSH2 0x14E1 PUSH1 0x0 NOT DUP5 PUSH1 0x8 MUL PUSH2 0x14C3 JUMP JUMPDEST NOT DUP1 DUP4 AND SWAP2 POP POP SWAP3 SWAP2 POP POP JUMP JUMPDEST PUSH1 0x0 PUSH2 0x14FA DUP4 DUP4 PUSH2 0x14D0 JUMP JUMPDEST SWAP2 POP DUP3 PUSH1 0x2 MUL DUP3 OR SWAP1 POP SWAP3 SWAP2 POP POP JUMP JUMPDEST PUSH2 0x1513 DUP3 PUSH2 0xD5C JUMP JUMPDEST PUSH8 0xFFFFFFFFFFFFFFFF DUP2 GT ISZERO PUSH2 0x152C JUMPI PUSH2 0x152B PUSH2 0x132F JUMP JUMPDEST JUMPDEST PUSH2 0x1536 DUP3 SLOAD PUSH2 0x12FE JUMP JUMPDEST PUSH2 0x1541 DUP3 DUP3 DUP6 PUSH2 0x147D JUMP JUMPDEST PUSH1 0x0 PUSH1 0x20 SWAP1 POP PUSH1 0x1F DUP4 GT PUSH1 0x1 DUP2 EQ PUSH2 0x1574 JUMPI PUSH1 0x0 DUP5 ISZERO PUSH2 0x1562 JUMPI DUP3 DUP8 ADD MLOAD SWAP1 POP JUMPDEST PUSH2 0x156C DUP6 DUP3 PUSH2 0x14EE JUMP JUMPDEST DUP7 SSTORE POP PUSH2 0x15D4 JUMP JUMPDEST PUSH1 0x1F NOT DUP5 AND PUSH2 0x1582 DUP7 PUSH2 0x135E JUMP JUMPDEST PUSH1 0x0 JUMPDEST DUP3 DUP2 LT ISZERO PUSH2 0x15AA JUMPI DUP5 DUP10 ADD MLOAD DUP3 SSTORE PUSH1 0x1 DUP3 ADD SWAP2 POP PUSH1 0x20 DUP6 ADD SWAP5 POP PUSH1 0x20 DUP2 ADD SWAP1 POP PUSH2 0x1585 JUMP JUMPDEST DUP7 DUP4 LT ISZERO PUSH2 0x15C7 JUMPI DUP5 DUP10 ADD MLOAD PUSH2 0x15C3 PUSH1 0x1F DUP10 AND DUP3 PUSH2 0x14D0 JUMP JUMPDEST DUP4 SSTORE POP JUMPDEST PUSH1 0x1 PUSH1 0x2 DUP9 MUL ADD DUP9 SSTORE POP POP POP JUMPDEST POP POP POP POP POP POP JUMP JUMPDEST PUSH2 0x15E5 DUP2 PUSH2 0xCEA JUMP JUMPDEST DUP3 MSTORE POP POP JUMP JUMPDEST DUP3 DUP2 DUP4 CALLDATACOPY PUSH1 0x0 DUP4 DUP4 ADD MSTORE POP POP POP JUMP JUMPDEST PUSH1 0x0 PUSH2 0x1606 DUP4 DUP6 PUSH2 0x1252 JUMP JUMPDEST SWAP4 POP PUSH2 0x1613 DUP4 DUP6 DUP5 PUSH2 0x15EB JUMP JUMPDEST PUSH2 0x161C DUP4 PUSH2 0xDA2 JUMP JUMPDEST DUP5 ADD SWAP1 POP SWAP4 SWAP3 POP POP POP JUMP JUMPDEST PUSH1 0x0 PUSH1 0x40 DUP3 ADD SWAP1 POP PUSH2 0x163C PUSH1 0x0 DUP4 ADD DUP7 PUSH2 0x15DC JUMP JUMPDEST DUP2 DUP2 SUB PUSH1 0x20 DUP4 ADD MSTORE PUSH2 0x164F DUP2 DUP5 DUP7 PUSH2 0x15FA JUMP JUMPDEST SWAP1 POP SWAP5 SWAP4 POP POP POP POP JUMP JUMPDEST PUSH1 0x0 PUSH1 0x20 DUP3 ADD SWAP1 POP PUSH2 0x166E PUSH1 0x0 DUP4 ADD DUP5 PUSH2 0x15DC JUMP JUMPDEST SWAP3 SWAP2 POP POP JUMP JUMPDEST PUSH32 0x4E487B7100000000000000000000000000000000000000000000000000000000 PUSH1 0x0 MSTORE PUSH1 0x11 PUSH1 0x4 MSTORE PUSH1 0x24 PUSH1 0x0 REVERT JUMPDEST PUSH1 0x0 PUSH2 0x16AE DUP3 PUSH2 0xCEA JUMP JUMPDEST SWAP2 POP PUSH32 0xFFFFFFFFFFFFFFFFFFFFFFFFFFFFFFFFFFFFFFFFFFFFFFFFFFFFFFFFFFFFFFFF DUP3 SUB PUSH2 0x16E0 JUMPI PUSH2 0x16DF PUSH2 0x1674 JUMP JUMPDEST JUMPDEST PUSH1 0x1 DUP3 ADD SWAP1 POP SWAP2 SWAP1 POP JUMP JUMPDEST PUSH1 0x0 PUSH2 0x16F6 DUP3 PUSH2 0xCEA JUMP JUMPDEST SWAP2 POP PUSH2 0x1701 DUP4 PUSH2 0xCEA JUMP JUMPDEST SWAP3 POP DUP3 DUP3 SUB SWAP1 POP DUP2 DUP2 GT ISZERO PUSH2 0x1719 JUMPI PUSH2 0x1718 PUSH2 0x1674 JUMP JUMPDEST JUMPDEST SWAP3 SWAP2 POP POP JUMP JUMPDEST PUSH1 0x0 PUSH2 0x172A DUP3 PUSH2 0xCEA JUMP JUMPDEST SWAP2 POP PUSH2 0x1735 DUP4 PUSH2 0xCEA JUMP JUMPDEST SWAP3 POP DUP3 DUP3 ADD SWAP1 POP DUP1 DUP3 GT ISZERO PUSH2 0x174D JUMPI PUSH2 0x174C PUSH2 0x1674 JUMP JUMPDEST JUMPDEST SWAP3 SWAP2 POP POP JUMP JUMPDEST PUSH32 0x4E487B7100000000000000000000000000000000000000000000000000000000 PUSH1 0x0 MSTORE PUSH1 0x32 PUSH1 0x4 MSTORE PUSH1 0x24 PUSH1 0x0 REVERT INVALID LOG2 PUSH5 0x6970667358 0x22 SLT KECCAK256 DUP12 GASPRICE 0xC8 MCOPY DUP12 0xBE 0xA5 CALLCODE DUP9 CALLDATASIZE 0xDE DUP6 SELFBALANCE 0x4E 0xEE PUSH25 0x9B7760F9C96AC483ABB43658413B0ABB64736F6C6343000818 STOP CALLER "},"methodIdentifiers":{"allTask()":"997c21a5","createTask(string,string,string,string)":"72a9f819","deleteTask(uint256)":"560f3192","updateTask(uint256,string,string,string,string)":"52723527","viewTask(uint256)":"3b3d7e56"}}}}}