{
  "_format": "hh-sol-artifact-1",
  "contractName": "Milestone_Mapper",
  "sourceName": "contracts/Milestone_Mapper.sol",
  "abi": [
    {
      "inputs": [],
      "stateMutability": "nonpayable",
      "type": "constructor"
    },
    {
      "anonymous": false,
      "inputs": [
        {
          "indexed": false,
          "internalType": "uint256",
          "name": "taskId",
          "type": "uint256"
        },
        {
          "indexed": false,
          "internalType": "string",
          "name": "name",
          "type": "string"
        }
      ],
      "name": "taskCreate",
      "type": "event"
    },
    {
      "anonymous": false,
      "inputs": [
        {
          "indexed": false,
          "internalType": "uint256",
          "name": "taskId",
          "type": "uint256"
        }
      ],
      "name": "taskDelete",
      "type": "event"
    },
    {
      "anonymous": false,
      "inputs": [
        {
          "indexed": false,
          "internalType": "uint256",
          "name": "taskId",
          "type": "uint256"
        },
        {
          "indexed": false,
          "internalType": "string",
          "name": "name",
          "type": "string"
        }
      ],
      "name": "taskUpdate",
      "type": "event"
    },
    {
      "inputs": [],
      "name": "allTask",
      "outputs": [
        {
          "components": [
            {
              "internalType": "uint256",
              "name": "id",
              "type": "uint256"
            },
            {
              "internalType": "string",
              "name": "name",
              "type": "string"
            },
            {
              "internalType": "string",
              "name": "description",
              "type": "string"
            },
            {
              "internalType": "string",
              "name": "date",
              "type": "string"
            },
            {
              "internalType": "string",
              "name": "isPriority",
              "type": "string"
            }
          ],
          "internalType": "struct Milestone_Mapper.Task[]",
          "name": "",
          "type": "tuple[]"
        }
      ],
      "stateMutability": "view",
      "type": "function"
    },
    {
      "inputs": [
        {
          "internalType": "string",
          "name": "_taskName",
          "type": "string"
        },
        {
          "internalType": "string",
          "name": "_description",
          "type": "string"
        },
        {
          "internalType": "string",
          "name": "_date",
          "type": "string"
        },
        {
          "internalType": "string",
          "name": "_isPriority",
          "type": "string"
        }
      ],
      "name": "createTask",
      "outputs": [],
      "stateMutability": "payable",
      "type": "function"
    },
    {
      "inputs": [
        {
          "internalType": "uint256",
          "name": "_taskId",
          "type": "uint256"
        }
      ],
      "name": "deleteTask",
      "outputs": [],
      "stateMutability": "payable",
      "type": "function"
    },
    {
      "inputs": [
        {
          "internalType": "uint256",
          "name": "_taskId",
          "type": "uint256"
        },
        {
          "internalType": "string",
          "name": "_taskName",
          "type": "string"
        },
        {
          "internalType": "string",
          "name": "_description",
          "type": "string"
        },
        {
          "internalType": "string",
          "name": "_date",
          "type": "string"
        },
        {
          "internalType": "string",
          "name": "_isPriority",
          "type": "string"
        }
      ],
      "name": "updateTask",
      "outputs": [],
      "stateMutability": "payable",
      "type": "function"
    },
    {
      "inputs": [
        {
          "internalType": "uint256",
          "name": "_taskId",
          "type": "uint256"
        }
      ],
      "name": "viewTask",
      "outputs": [
        {
          "components": [
            {
              "internalType": "uint256",
              "name": "id",
              "type": "uint256"
            },
            {
              "internalType": "string",
              "name": "name",
              "type": "string"
            },
            {
              "internalType": "string",
              "name": "description",
              "type": "string"
            },
            {
              "internalType": "string",
              "name": "date",
              "type": "string"
            },
            {
              "internalType": "string",
              "name": "isPriority",
              "type": "string"
            }
          ],
          "internalType": "struct Milestone_Mapper.Task",
          "name": "",
          "type": "tuple"
        }
      ],
      "stateMutability": "view",
      "type": "function"
    }
  ],
  "bytecode": "0x6080604052600160075534801561001557600080fd5b50336000806101000a81548173ffffffffffffffffffffffffffffffffffffffff021916908373ffffffffffffffffffffffffffffffffffffffff1602179055506117b8806100656000396000f3fe60806040526004361061004a5760003560e01c80633b3d7e561461004f578063527235271461008c578063560f3192146100a857806372a9f819146100c4578063997c21a5146100e0575b600080fd5b34801561005b57600080fd5b5061007660048036038101906100719190610d20565b61010b565b6040516100839190610e77565b60405180910390f35b6100a660048036038101906100a19190610efe565b6103dd565b005b6100c260048036038101906100bd9190610d20565b610627565b005b6100de60048036038101906100d99190610ffa565b610712565b005b3480156100ec57600080fd5b506100f5610924565b6040516101029190611230565b60405180910390f35b610113610c54565b8160008114158015610126575060075481105b610165576040517f08c379a000000000000000000000000000000000000000000000000000000000815260040161015c906112af565b60405180910390fd5b600660008481526020019081526020016000206040518060a00160405290816000820154815260200160018201805461019d906112fe565b80601f01602080910402602001604051908101604052809291908181526020018280546101c9906112fe565b80156102165780601f106101eb57610100808354040283529160200191610216565b820191906000526020600020905b8154815290600101906020018083116101f957829003601f168201915b5050505050815260200160028201805461022f906112fe565b80601f016020809104026020016040519081016040528092919081815260200182805461025b906112fe565b80156102a85780601f1061027d576101008083540402835291602001916102a8565b820191906000526020600020905b81548152906001019060200180831161028b57829003601f168201915b505050505081526020016003820180546102c1906112fe565b80601f01602080910402602001604051908101604052809291908181526020018280546102ed906112fe565b801561033a5780601f1061030f5761010080835404028352916020019161033a565b820191906000526020600020905b81548152906001019060200180831161031d57829003601f168201915b50505050508152602001600482018054610353906112fe565b80601f016020809104026020016040519081016040528092919081815260200182805461037f906112fe565b80156103cc5780601f106103a1576101008083540402835291602001916103cc565b820191906000526020600020905b8154815290600101906020018083116103af57829003601f168201915b505050505081525050915050919050565b88600081141580156103f0575060075481105b61042f576040517f08c379a0000000000000000000000000000000000000000000000000000000008152600401610426906112af565b60405180910390fd5b6040518060a001604052808b81526020018a8a8080601f016020809104026020016040519081016040528093929190818152602001838380828437600081840152601f19601f82011690508083019250505050505050815260200188888080601f016020809104026020016040519081016040528093929190818152602001838380828437600081840152601f19601f82011690508083019250505050505050815260200186868080601f016020809104026020016040519081016040528093929190818152602001838380828437600081840152601f19601f82011690508083019250505050505050815260200184848080601f016020809104026020016040519081016040528093929190818152602001838380828437600081840152601f19601f82011690508083019250505050505050815250600660008c8152602001908152602001600020600082015181600001556020820151816001019081610598919061150a565b5060408201518160020190816105ae919061150a565b5060608201518160030190816105c4919061150a565b5060808201518160040190816105da919061150a565b509050507f943adabf122c6ab07969fd6d8650cb507d5cbb254d4d8f7fa5abd989ea2b54d06007548a8a60405161061393929190611627565b60405180910390a150505050505050505050565b806000811415801561063a575060075481105b610679576040517f08c379a0000000000000000000000000000000000000000000000000000000008152600401610670906112af565b60405180910390fd5b600660008381526020019081526020016000206000808201600090556001820160006106a59190610c83565b6002820160006106b59190610c83565b6003820160006106c59190610c83565b6004820160006106d59190610c83565b50507feae6ad3b4b47002b66d830fda22aeca77d9ebc4b21656b0c80880f26ffbfdf34826040516107069190611659565b60405180910390a15050565b6040518060a00160405280600754815260200189898080601f016020809104026020016040519081016040528093929190818152602001838380828437600081840152601f19601f82011690508083019250505050505050815260200187878080601f016020809104026020016040519081016040528093929190818152602001838380828437600081840152601f19601f82011690508083019250505050505050815260200185858080601f016020809104026020016040519081016040528093929190818152602001838380828437600081840152601f19601f82011690508083019250505050505050815260200183838080601f016020809104026020016040519081016040528093929190818152602001838380828437600081840152601f19601f8201169050808301925050505050505081525060066000600754815260200190815260200160002060008201518160000155602082015181600101908161087f919061150a565b506040820151816002019081610895919061150a565b5060608201518160030190816108ab919061150a565b5060808201518160040190816108c1919061150a565b50905050600760008154809291906108d8906116a3565b91905055507f8d2940774d17f73b208e757bc4b4290cf4d29d6a7eb353d4b72e5eb87e73844d600754898960405161091293929190611627565b60405180910390a15050505050505050565b60606000600160075461093791906116eb565b67ffffffffffffffff8111156109505761094f61132f565b5b60405190808252806020026020018201604052801561098957816020015b610976610c54565b81526020019060019003908161096e5790505b50905060005b600160075461099e91906116eb565b811015610c4c57600660006001836109b6919061171f565b81526020019081526020016000206040518060a0016040529081600082015481526020016001820180546109e9906112fe565b80601f0160208091040260200160405190810160405280929190818152602001828054610a15906112fe565b8015610a625780601f10610a3757610100808354040283529160200191610a62565b820191906000526020600020905b815481529060010190602001808311610a4557829003601f168201915b50505050508152602001600282018054610a7b906112fe565b80601f0160208091040260200160405190810160405280929190818152602001828054610aa7906112fe565b8015610af45780601f10610ac957610100808354040283529160200191610af4565b820191906000526020600020905b815481529060010190602001808311610ad757829003601f168201915b50505050508152602001600382018054610b0d906112fe565b80601f0160208091040260200160405190810160405280929190818152602001828054610b39906112fe565b8015610b865780601f10610b5b57610100808354040283529160200191610b86565b820191906000526020600020905b815481529060010190602001808311610b6957829003601f168201915b50505050508152602001600482018054610b9f906112fe565b80601f0160208091040260200160405190810160405280929190818152602001828054610bcb906112fe565b8015610c185780601f10610bed57610100808354040283529160200191610c18565b820191906000526020600020905b815481529060010190602001808311610bfb57829003601f168201915b505050505081525050828281518110610c3457610c33611753565b5b6020026020010181905250808060010191505061098f565b508091505090565b6040518060a0016040528060008152602001606081526020016060815260200160608152602001606081525090565b508054610c8f906112fe565b6000825580601f10610ca15750610cc0565b601f016020900490600052602060002090810190610cbf9190610cc3565b5b50565b5b80821115610cdc576000816000905550600101610cc4565b5090565b600080fd5b600080fd5b6000819050919050565b610cfd81610cea565b8114610d0857600080fd5b50565b600081359050610d1a81610cf4565b92915050565b600060208284031215610d3657610d35610ce0565b5b6000610d4484828501610d0b565b91505092915050565b610d5681610cea565b82525050565b600081519050919050565b600082825260208201905092915050565b60005b83811015610d96578082015181840152602081019050610d7b565b60008484015250505050565b6000601f19601f8301169050919050565b6000610dbe82610d5c565b610dc88185610d67565b9350610dd8818560208601610d78565b610de181610da2565b840191505092915050565b600060a083016000830151610e046000860182610d4d565b5060208301518482036020860152610e1c8282610db3565b91505060408301518482036040860152610e368282610db3565b91505060608301518482036060860152610e508282610db3565b91505060808301518482036080860152610e6a8282610db3565b9150508091505092915050565b60006020820190508181036000830152610e918184610dec565b905092915050565b600080fd5b600080fd5b600080fd5b60008083601f840112610ebe57610ebd610e99565b5b8235905067ffffffffffffffff811115610edb57610eda610e9e565b5b602083019150836001820283011115610ef757610ef6610ea3565b5b9250929050565b600080600080600080600080600060a08a8c031215610f2057610f1f610ce0565b5b6000610f2e8c828d01610d0b565b99505060208a013567ffffffffffffffff811115610f4f57610f4e610ce5565b5b610f5b8c828d01610ea8565b985098505060408a013567ffffffffffffffff811115610f7e57610f7d610ce5565b5b610f8a8c828d01610ea8565b965096505060608a013567ffffffffffffffff811115610fad57610fac610ce5565b5b610fb98c828d01610ea8565b945094505060808a013567ffffffffffffffff811115610fdc57610fdb610ce5565b5b610fe88c828d01610ea8565b92509250509295985092959850929598565b6000806000806000806000806080898b03121561101a57611019610ce0565b5b600089013567ffffffffffffffff81111561103857611037610ce5565b5b6110448b828c01610ea8565b9850985050602089013567ffffffffffffffff81111561106757611066610ce5565b5b6110738b828c01610ea8565b9650965050604089013567ffffffffffffffff81111561109657611095610ce5565b5b6110a28b828c01610ea8565b9450945050606089013567ffffffffffffffff8111156110c5576110c4610ce5565b5b6110d18b828c01610ea8565b92509250509295985092959890939650565b600081519050919050565b600082825260208201905092915050565b6000819050602082019050919050565b600060a0830160008301516111276000860182610d4d565b506020830151848203602086015261113f8282610db3565b915050604083015184820360408601526111598282610db3565b915050606083015184820360608601526111738282610db3565b9150506080830151848203608086015261118d8282610db3565b9150508091505092915050565b60006111a6838361110f565b905092915050565b6000602082019050919050565b60006111c6826110e3565b6111d081856110ee565b9350836020820285016111e2856110ff565b8060005b8581101561121e57848403895281516111ff858261119a565b945061120a836111ae565b925060208a019950506001810190506111e6565b50829750879550505050505092915050565b6000602082019050818103600083015261124a81846111bb565b905092915050565b600082825260208201905092915050565b7f496e76616c696420496400000000000000000000000000000000000000000000600082015250565b6000611299600a83611252565b91506112a482611263565b602082019050919050565b600060208201905081810360008301526112c88161128c565b9050919050565b7f4e487b7100000000000000000000000000000000000000000000000000000000600052602260045260246000fd5b6000600282049050600182168061131657607f821691505b602082108103611329576113286112cf565b5b50919050565b7f4e487b7100000000000000000000000000000000000000000000000000000000600052604160045260246000fd5b60008190508160005260206000209050919050565b60006020601f8301049050919050565b600082821b905092915050565b6000600883026113c07fffffffffffffffffffffffffffffffffffffffffffffffffffffffffffffffff82611383565b6113ca8683611383565b95508019841693508086168417925050509392505050565b6000819050919050565b60006114076114026113fd84610cea565b6113e2565b610cea565b9050919050565b6000819050919050565b611421836113ec565b61143561142d8261140e565b848454611390565b825550505050565b600090565b61144a61143d565b611455818484611418565b505050565b5b818110156114795761146e600082611442565b60018101905061145b565b5050565b601f8211156114be5761148f8161135e565b61149884611373565b810160208510156114a7578190505b6114bb6114b385611373565b83018261145a565b50505b505050565b600082821c905092915050565b60006114e1600019846008026114c3565b1980831691505092915050565b60006114fa83836114d0565b9150826002028217905092915050565b61151382610d5c565b67ffffffffffffffff81111561152c5761152b61132f565b5b61153682546112fe565b61154182828561147d565b600060209050601f8311600181146115745760008415611562578287015190505b61156c85826114ee565b8655506115d4565b601f1984166115828661135e565b60005b828110156115aa57848901518255600182019150602085019450602081019050611585565b868310156115c757848901516115c3601f8916826114d0565b8355505b6001600288020188555050505b505050505050565b6115e581610cea565b82525050565b82818337600083830152505050565b60006116068385611252565b93506116138385846115eb565b61161c83610da2565b840190509392505050565b600060408201905061163c60008301866115dc565b818103602083015261164f8184866115fa565b9050949350505050565b600060208201905061166e60008301846115dc565b92915050565b7f4e487b7100000000000000000000000000000000000000000000000000000000600052601160045260246000fd5b60006116ae82610cea565b91507fffffffffffffffffffffffffffffffffffffffffffffffffffffffffffffffff82036116e0576116df611674565b5b600182019050919050565b60006116f682610cea565b915061170183610cea565b925082820390508181111561171957611718611674565b5b92915050565b600061172a82610cea565b915061173583610cea565b925082820190508082111561174d5761174c611674565b5b92915050565b7f4e487b7100000000000000000000000000000000000000000000000000000000600052603260045260246000fdfea26469706673582212208b3ac85e8bbea5f28836de85474eee789b7760f9c96ac483abb43658413b0abb64736f6c63430008180033",
  "linkReferences": {},
  "deployedLinkReferences": {}
}